:020000040000FA
:060000000A128A11122809
:10000800FE00030E83120313A2000408A3000A08CB
:10001800A4007F08A5000A128A15AF280A128A11BF
:100028001528831603130A128A11FF270A128A1148
:10003800EC00831203130A168A112E240A128A115D
:10004800E7000A168A112F240A128A11E8000A16F4
:100058008A1130240A128A11E9000A128A11FE272D
:100068000A128A11FD008313A0308400EA300A16B0
:100078008A1145240A128A11E401E501E601FB010F
:10008800FC0183010A128A15AB2AFF0000308A009E
:100098007F0882074E284F280A128A11C92B0A1294
:1000A8008A15AF2D0A128A11F02C0A128A155D28BA
:1000B8000A128A156E2EFF0000308A007F08820718
:1000C80064280A128A15312F831203133C088039D9
:1000D800C1004108C6003C08C1004107C2004208EF
:1000E800CC00BB1F782879287A284C144C080319AF
:1000F8007E287F288E284C0A031D832884288C2874
:100108000030BC000030BB000030BA000030B9003D
:10011800BB1796280030BC000030BB000030BA0086
:100128000030B90040088039C1004108C6064008BF
:10013800C1004107C2004208C700BF1FA428A52864
:10014800A628471447080319AA28AB28BA28470A3B
:10015800031DAF28B028B8280030C0000030BF0009
:100168000030BE000030BD00BF17C2280030C000FC
:100178000030BF000030BE000030BD004708031942
:10018800C628C728CC284C08031DCB28CC28D5283E
:100198000030BC000030BB000030BA000030B900AD
:1001A800C82B3908C1004108A6003F080A168A1161
:1001B80076250A128A11831203132708D20026080B
:1001C800D1005108C100C201C301C4014408CB00D9
:1001D8004308CA004208C9004108C8005208C100C3
:1001E800C201C301C4014408D0004308CF0042083B
:1001F800CE004108CD003A08C1004108A6003E08DB
:100208000A168A1176250A128A11831203132708FF
:10021800D2002608D1005108C100C201C301C4019F
:100228004108C807420803110318013E03191D2994
:10023800C907430803110318013E03192429CA07F3
:10024800440803110318013E03192B29CB07520850
:10025800C100C201C301C4014108CD07420803110E
:100268000318013E03193929CE074308031103185F
:10027800013E03194029CF07440803110318013E22
:1002880003194729D0073B08C1004108A6003D08CB
:100298000A168A1176250A128A118312031327086F
:1002A800D2002608D1005108C100C201C301C4010F
:1002B8004108C807420803110318013E03196529BC
:1002C800C907430803110318013E03196C29CA071B
:1002D800440803110318013E03197329CB07520878
:1002E800C100C201C301C4014108CD07420803117E
:1002F8000318013E03198129CE0743080311031887
:10030800013E03198829CF07440803110318013E49
:1003180003198F29D0070830C1000310C80DC90D73
:10032800CA0DCB0DC10B91293A08C1004108A6009E
:100338003D080A168A1176250A128A1183120313B8
:100348002708D2002608D1005108C1005208C2006F
:10035800C301C4014108C807420803110318013E3C
:100368000319B729C907430803110318013E0319E4
:10037800BE29CA07440803110318013E0319C529F9
:10038800CB073908C1004108A6003E080A168A11A1
:1003980076250A128A11831203132708D200260829
:1003A800D1005108C1005208C200C301C40141086C
:1003B800C807420803110318013E0319E429C907B5
:1003C800430803110318013E0319EB29CA0744081F
:1003D80003110318013E0319F229CB070830C100A5
:1003E8000310C80DC90DCA0DCB0DC10BF42939086E
:1003F800C1004108A6003D080A168A1176250A128E
:100408008A11831203132708D2002608D100510845
:10041800C1005208C200C301C4014108C80742080C
:1004280003110318013E03191A2AC90743080311C7
:100438000318013E0319212ACA07440803110318A7
:10044800013E0319282ACB073A08C1004108A60033
:100458003F080A168A1176250A128A118312031395
:100468002708D2002608D1005108C1005208C2004E
:10047800C301C4014108CD07420803110318013E16
:100488000319472ACE07430803110318013E03192D
:100498004E2ACF07440803110318013E0319552AB1
:1004A800D0073B08C1004108A6003E080A168A1179
:1004B80076250A128A11831203132708D200260808
:1004C800D1005108C1005208C200C301C40141084B
:1004D800CD07420803110318013E0319742ACE07F9
:1004E800430803110318013E03197B2ACF07440868
:1004F80003110318013E0319822AD0073B08C100E3
:100508004108A6003F080A168A1176250A128A11A0
:10051800831203132708D2002608D1005108C1000E
:100528005208C200C301C40108300310C10DC20D36
:10053800C30DC40DFF3E031D992A4108CD0742088B
:1005480003110318013E0319AA2ACE074308031111
:100558000318013E0319B12ACF07440803110318F1
:10056800013E0319B82AD0074808C1004908C2004B
:100578004A08C3004B08C40018300310C40CC30C4D
:10058800C20CC10CFF3E031DC12A4108CD07420819
:1005980003110318013E0319D22ACE074308031199
:1005A8000318013E0319D92ACF0744080311031879
:1005B800013E0319E02AD0070830C1000310C80D16
:1005C800C90DCA0DCB0DC10BE22A4C084707C10063
:1005D800C201C20D4108823ED10042080318013E03
:1005E800FF3ED200142B0130C1000310CD0DCE0DFB
:1005F800CF0DD00DC10BF92ACB1F032B042B052BD4
:100608004D140130C1000310C80DC90DCA0DCB0D22
:10061800C10B072BFF30D1070318D20AFF30D207CE
:10062800CF1F172B182BF72AC701CB1F1C2B1D2BED
:10063800392BFF304805C100FF304905C200FF30A3
:100648004A05C3007F304B05C400440843044204F4
:1006580041040319302B312B342BC701C70A392B1E
:100668004D1C372B382B392B312B470803193D2BC1
:100678003E2B6F2B0130CD07003003180130CE0719
:10068800003003180130CF07003003180130D007BD
:10069800501C4F2B502B6F2B4D08C1004E08C20029
:1006A8004F08C3005008C4000130C500440DC40CF5
:1006B800C30CC20CC10CC50B5A2B4408D00043080C
:1006C800CF004208CE004108CD000130D107031801
:1006D800D20A0030D2075208803AFF0080307F02E9
:1006E800031D782BFF305102031C7B2B7C2B872B9F
:1006F8007F3083120313D0008030CF000030CE004B
:100708000030CD00BC2B831203135208803AFF003F
:1007180080307F02031D922B013051020318952B64
:10072800962BA22B003083120313D0000030CF0089
:100738000030CE000030CD00C601BC2B831203135D
:100748005108C1004108CC00FF30CD05FF30CE056F
:100758007F30CF050030D0054C1CB32BB42BB52B04
:10076800CF174C08C1000310410CC2004208D0004A
:100778004608C1004108D0045008BC004F08BB001F
:100788004E08BA004D08B900080083120313A901E6
:1007980001300A128A11E0270A128A11003A031D51
:1007A800D62BD72BF72B831603136708031DDD2BD6
:1007B800DE2BF72BE701E70A0330831203136706E2
:1007C800031DE72BE82BED2B0430DE005E08E70065
:1007D800F72B04306706031DF22BF32BF72B03309E
:1007E800DE005E08E70083120313A90101300A1234
:1007F8008A11E0270A128A11003A0319042C052CE1
:10080800082C83160313E7010430831203136706C9
:10081800031D0F2C102CEF2C02300A168A114C26BF
:100828000A128A11831203132608DE002708DF0044
:10083800E001E1016108AE006008AD005F08AC00AE
:100848005E08AB0000300A128A15F3240A128A11D6
:10085800831203132E08C0002D08BF002C08BE0009
:100868002B08BD003E30BC00F930BB00DB30BA00BD
:100878002330B9000A128A1168200A128A118312D9
:1008880003133C08D6003B08D5003A08D4003908C1
:10089800D3000A128A152F220A128A11831203130F
:1008A8005308E200620883160313EA00013083123A
:1008B8000313DE005E08FB07831603136A0883121E
:1008C8000313DE00DF015E0883160313E107031834
:1008D800E20A831203135F0883160313E2070A3040
:1008E8007B06031D782C792CEF2C0A168A113124EB
:1008F8000A128A1183120313DE005E08831603139B
:10090800EB00FB010A3083120313A6000030A70096
:1009180083160313620883120313A90083160313B3
:10092800610883120313A8000A168A116C270A1299
:100938008A1183120313270883160313E200831214
:100948000313260883160313E1006B0883120313AD
:10095800DE00DF01831603136108053E83120313CB
:10096800E0008316031362080318013E003E831259
:100978000313E1005F086102031DC42C5E086002D6
:100988000318C72CC82CCC2C0230DE005E08FD00F2
:10099800831603136B08053E83120313DE00003031
:1009A80003180130DF008316031362088312031350
:1009B8005F02031DE52C83160313610883120313DA
:1009C8005E020318E82CE92CEB2CFD01FD0A8316C6
:1009D8000313E101E20108000A168A118B240A12A6
:1009E8008A1183120313AC002C08E4000330640658
:1009F800031DFF2C002D392D0630AC002C08A60055
:100A0800A70101300A128A11FF260A128A1107303B
:100A180083120313AC002C08A600A70101300A12A8
:100A28008A11FF260A128A1100300A168A11352403
:100A38000A128A11053083120313AC002C08A60091
:100A4800A70102300A128A11FF260A128A110230FF
:100A580083120313AC002C08A600A70102300A1267
:100A68008A11FF260A128A11092E0730AC002C08B9
:100A7800A600A701A70A01300A128A11FF260A1246
:100A88008A11FA308316031365066604031D4D2D7B
:100A98004E2D5A2D831203136503031D542D552D16
:100AA8005A2DE50183160313E501E6018312650358
:100AB800031D5F2D602DB92D013083160313E50743
:100AC8000318E60A0030E607053083120313AC006A
:100AD8002C08A600A70102300A128A11FF260A1262
:100AE8008A11023083120313AC002C08A600A70158
:100AF80002300A128A11FF260A128A113230831232
:100B08000313A6000030A700831603136608831298
:100B18000313A90083160313650883120313A8009F
:100B28000A168A11ED260A128A118312031326085F
:100B38002704031DA02DA12DFF2D0A128A11FA27C3
:100B48000A128A11013A031DAA2DAB2DB22D0030CD
:100B58000A168A1135240A128A11FF2D01300A1645
:100B68008A1135240A128A11FF2D01300A168A11BA
:100B780035240A128A110230831203136406031DF6
:100B8800C62DC72DE12D0530AC002C08A600A70105
:100B9800A70A02300A128A11FF260A128A110230A5
:100BA80083120313AC002C08A600A70102300A1216
:100BB8008A11FF260A128A11FF2D6403031DE52DF1
:100BC800E62DFF2D0530AC002C08A600A701023049
:100BD8000A128A11FF260A128A110230831203139D
:100BE800AC002C08A600A701A70A02300A128A1135
:100BF800FF260A128A110A168A1131240A128A114A
:100C08000A168A1197240A128A11080083120313FC
:100C1800AA00E52E2703031D122E132E232E0130C2
:100C2800A800260A192E0310A80DFF3E031D172E33
:100C38002808A9002908831603138504FE2E27080F
:100C4800031D272E282EFE2E0130A800260A2E2E40
:100C58000310A80DFF3E031D2C2E2808FF3AA900FB
:100C68002908831603138505FE2E2703031D3D2E31
:100C78003E2E4E2E0130A800260A442E0310A80D41
:100C8800FF3E031D422E2808A900290883160313D6
:100C98008604FE2E2708031D522E532EFE2E0130E9
:100CA800A800260A592E0310A80DFF3E031D572E33
:100CB8002808FF3AA9002908831603138605FE2E83
:100CC8002703031D682E692E792E0130A800260AF5
:100CD8006F2E0310A80DFF3E031D6D2E2808A900D6
:100CE8002908831603138704FE2E2708031D7D2E6B
:100CF8007E2EFE2E0130A800260A842E0310A80D91
:100D0800FF3E031D822E2808FF3AA90029088316F2
:100D180003138705FE2E2703031D932E942EA42E5E
:100D28000130A800260A9A2E0310A80DFF3E031DC5
:100D3800982E2808A9002908831603138804FE2E74
:100D48002708031DA82EA92EFE2E0130A800260A6A
:100D5800AF2E0310A80DFF3E031DAD2E2808FF3A45
:100D6800A9002908831603138805FE2E2703031DEF
:100D7800BE2EBF2ECF2E0130A800260AC52E031086
:100D8800A80DFF3E031DC32E2808A90029088316B5
:100D980003138904FE2E2708031DD32ED42EFE2EFE
:100DA8000130A800260ADA2E0310A80DFF3E031D05
:100DB800D82E2808FF3AA9002908831603138905A5
:100DC800FE2E2A08A800A9012908003A0319ED2EC9
:100DD800FE2E2808003A03190E2E013A0319392E5F
:100DE800033A0319642E013A03198F2E073A03199F
:100DF800BA2EFE2E080083120313AA00C62F27035B
:100E0800031D072F082F162F0130A800260A0E2FC2
:100E18000310A80DFF3E031D0C2F2808A900290860
:100E28008504DF2F2708031D1A2F1B2FDF2F013002
:100E3800A800260A212F0310A80DFF3E031D1F2F0F
:100E48002808FF3AA90029088505DF2F2703031D75
:100E58002E2F2F2F3D2F0130A800260A352F0310E3
:100E6800A80DFF3E031D332F2808A9002908860472
:100E7800DF2F2708031D412F422FDF2F0130A80045
:100E8800260A482F0310A80DFF3E031D462F2808E9
:100E9800FF3AA90029088605DF2F2703031D552FD0
:100EA800562F642F0130A800260A5C2F0310A80DC6
:100EB800FF3E031D5A2F2808A90029088704DF2FA1
:100EC8002708031D682F692FDF2F0130A800260A85
:100ED8006F2F0310A80DFF3E031D6D2F2808FF3A42
:100EE800A90029088705DF2F2703031D7C2F7D2FE5
:100EF8008B2F0130A800260A832F0310A80DFF3E70
:100F0800031D812F2808A90029088804DF2F270836
:100F1800031D8F2F902FDF2F0130A800260A962F50
:100F28000310A80DFF3E031D942F2808FF3AA900BF
:100F380029088805DF2F2703031DA32FA42FB22F0D
:100F48000130A800260AAA2F0310A80DFF3E031D92
:100F5800A82F2808A90029088904DF2F2708031DBE
:100F6800B62FB72FDF2F0130A800260ABD2F031098
:100F7800A80DFF3E031DBB2F2808FF3AA90029082A
:100F88008905DF2F2A08A800A9012908003A0319B2
:100F9800CE2FDF2F2808003A0319032F013A03192F
:100FA8002A2F033A0319512F013A0319782F073AC8
:100FB80003199F2FDF2F080083120313AB002B08A0
:100FC8000A168A114D250A128A1183120313AA00E0
:100FD8002A08AC002C08AA00290AF42F0310AA0C2E
:100FE800FF3E031DF22F2A0801390800831203135C
:080FF800680808000434FF340E
:1010020083160313141906280728012811081F390B
:10101200031D0C280D280128080083120313AD00BC
:101022000A168A11F3250A128A150A168A115624FB
:101032000A128A1521280A168A114D240A128A15C3
:1010420050300A168A1110250A128A15003A031D19
:101052002B282C281C2800300A168A11A8240A12D0
:101062008A15831203132D080A168A11A8240A125C
:101072008A150A168A114D240A128A1550300A1648
:101082008A11BA240A128A150A168A11E2240A124D
:101092008A1583120313AC002C08AE000A168A11BB
:1010A20073240A128A150A168A115F240A128A15F3
:1010B200831203132E0808000230831203136406FE
:1010C200031D6428652891280630AD002D08A9006B
:1010D20001300A128A11E0270A128A15013A031D09
:1010E200732874288228063083120313AD002D085A
:1010F200A600A70101300A128A11FF260A128A15D8
:10110200AE28063083120313AD002D08A600A701F6
:10111200A70A01300A128A11FF260A128A15AE287E
:101122006403031D95289628A3280630AD002D08D8
:10113200A600A701A70A01300A128A11FF260A1285
:101142008A15AE280630AD002D08A600A701013091
:101152000A128A11FF260A128A1508000B1DB228EC
:10116200B328BA280B117C080A128A115F200A12CE
:101172008A15831203130C08A00000300C180130EA
:10118200013EC5280310A00CFF3E031DC328201CEE
:10119200CB28CC28DD280130A00000300C1801300B
:1011A200013ED5280310A00DFF3E031DD3282008C1
:1011B200FF3AA10021088C050C08A00000308C1811
:1011C2000130013EE6280310A00CFF3E031DE42877
:1011D200201CEC28ED28FE280130A00000308C18DD
:1011E2000130013EF6280310A00DFF3E031DF42836
:1011F2002008FF3AA10021088C052508FF002408D9
:101202008A0023088400220E8300FE0E7E0E09004F
:1012120083120313AC01A91F0F2910291729A8094A
:10122200A909A80A0319A90AAC01AC0AA71F1A291D
:101232001B292029A609A709A60A0319A70A260815
:1012420027040319252926295529AB01AB0A34297C
:1012520001300310A60DA70DFF3E031D2A29013000
:10126200AA002A08AB07A71F3729382929292708E6
:101272002902031D3E2926082802031C412942296E
:1012820048292608A8022708031CA903A90201303D
:101292000310A70CA60CFF3E031D49290130AB0227
:1012A200031D5429552938292C08031959295A296B
:1012B2005F29A809A909A80A0319A90A2908A700E8
:1012C2002808A600080083160313811281119929A8
:1012D20083160313011081100111BF298316031312
:1012E200011481100111BF29831603130110811407
:1012F2000111BF2983160313011481140111BF299F
:1013020083160313011081100115BF2983160313DD
:10131200011481100115BF298316031301108114D2
:101322000115BF2983160313011481140115BF2966
:10133200831203132708003A0319A329013A031958
:10134200BA29BF292608023A03196929063A03195C
:101352006F290C3A03197529183A03197B29303A77
:1013620003198129603A03198729C03A03198D2983
:10137200BF292608003A03199329BF298312280896
:101382000319C429C529C8290B178B178B16080006
:1013920083120313AB0005302B020318D129D22983
:1013A2002E2A0D30AA002A08A6002B080A168A1136
:1013B200F9240A128A15A03E8400831380010D309D
:1013C20083120313AA002A08A6002B080A168A1100
:1013D200F9240A128A15A13E84000030831380008A
:1013E200840A00308000840A00308000840A0030C1
:1013F20080000D3083120313AA002A08A6002B08CE
:101402000A168A11F9240A128A15A53E84000030B0
:1014120083138000840A00308000840A0030800038
:10142200840A003080000D3083120313AA002A08B8
:10143200A6002B080A168A11F9240A128A15A93E57
:101442008400003083138000840A00308000840A04
:1014520000308000840A00308000080003108312EC
:101462000313550D560DD7005708DD005D08031D07
:101472003B2A3C2A452A0030D6000030D5000030F5
:10148200D4000030D300AA2A5308D7005408D80049
:101492005508D9005608DA001F300310DA0CD90CAF
:1014A200D80CD70CFF3E031D4E2A5708DB005B0801
:1014B200DC00D517FF30D305FF30D405FF30D5054A
:1014C2000030D6059630DD02DD1F682A692A832A9C
:1014D2005D08803A973E03186F2A702A712A3C2AC7
:1014E20001300310D60CD50CD40CD30CFF3E031DD7
:1014F200722A0130D7005708DD07031D812A822A8C
:10150200712A9A2A20305D02031C882A892A952A88
:101512003C2A0130D7000310D30DD40DD50DD60DC2
:10152200D70B8C2A0130DD025D08031D992A9A2A05
:101532008A2A5C0803199E2A9F2AAA2AD309D40957
:10154200D509D609D30A0319D40A0319D50A0319EE
:10155200D60A08000A128A15C2230A128A150A1626
:101562008A119F250A128A15003083120313AD00D7
:101572000030AC000030AB001430AA000030B100E3
:101582000030B0000030AF006430AE0002300A120A
:101592008A1536230A128A15003083120313AD000E
:1015A2000030AC000030AB001430AA000030B100B3
:1015B2000030B0000030AF001430AE0005300A1227
:1015C2008A1536230A128A15003083120313AD00DE
:1015D2000030AC000030AB000030AA000030B10097
:1015E2000030B0000030AF001430AE0008300A12F4
:1015F2008A1536230A128A15003083120313AD00AE
:101602000030AC000030AB001430AA000030B10052
:101612000030B0000030AF000530AE000E300A12CC
:101622008A1536230A128A15003083120313AD007D
:101632000030AC000330AB00E830AA000030B1004B
:101642000030B0000330AF00E830AE000B300A12B9
:101652008A1536230A128A150A128A1554240A1286
:101662008A152D2B0A128A11122883120313B40031
:10167200B5013F2B0130B2003208B5070D30B20080
:101682003208A60035080A168A11F9240A128A15A8
:10169200A03E8400831300080319502B512B592BB1
:1016A2000530831203133502031C582B592B3B2B95
:1016B2000530831203133506031D602B612B622B49
:1016C200C12B3408B2000D30B3003308A600350830
:1016D2000A168A11F9240A128A15A03E840083127E
:1016E20003133208831380000D30B2003208A600C3
:1016F20035080A168A11F9240A128A15A13E8400B5
:10170200831203132A0883138000840A2B088000A3
:10171200840A2C088000840A2D0880000D30B20053
:101722003208A60035080A168A11F9240A128A1507
:10173200A53E8400831203132E0883138000840ABB
:101742002F088000840A30088000840A3108800053
:101752000D30B2003208A60035080A168A11F924A3
:101762000A128A15A93E8400003083138000840A7D
:1017720000308000840A00308000840A003080003B
:1017820008000A168A11B2270A128A150A168A1145
:1017920029250A128A150A168A11C8250A128A15DB
:1017A200033083120313B1003108A600A7010130F0
:1017B2000A128A110A260A128A15043083120313A6
:1017C200B1003108A600A70101300A128A110A26C7
:1017D2000A128A15053083120313B1003108A600DC
:1017E200A70101300A128A110A260A128A15063046
:1017F20083120313B1003108A600A70101300A12B7
:101802008A110A260A128A15073083120313B100BD
:101812003108A600A70101300A128A110A260A120B
:101822008A15033083120313B1003108A600A70101
:1018320001300A128A11FF260A128A150430831215
:101842000313B1003108A600A70101300A128A1160
:10185200FF260A128A15053083120313B1003108DC
:10186200A600A70101300A128A11FF260A128A1560
:10187200063083120313B1003108A600A70101301C
:101882000A128A11FF260A128A15073083120313DD
:10189200B1003108A600A70101300A128A11FF2601
:1018A2000A128A15080083120313E3010D3083160E
:1018B20003179000100883120313A60063080A1688
:1018C2008A11F9240A128A15A93E8400831300089A
:1018D200831603179100840A00089200840A000804
:1018E2009300840A000894001408130412041104DB
:1018F20003197C2C7D2CE42C0D30900010088312EF
:101902000313A60063080A168A11F9240A128A151B
:10191200A03E8400831300080A128A1149200A1289
:101922008A150D30831603179000100883120313D3
:10193200A60063080A168A11F9240A128A15A93E1A
:101942008400013083138002840A0030031C0130BA
:101952008002840A0030031C01308002840A0030B5
:10196200031C01308002033084020D3083160317FA
:101972009000100883120313A60063080A168A1146
:10198200F9240A128A15A53E8400831300088316DF
:1019920003179100840A00089200840A0008930049
:1019A200840A000894001408130412041104031D8D
:1019B200DB2CDC2CE42C8312031363080A128A1535
:1019C200C9210A128A1501308316031790001008E4
:1019D20083120313E30705306302031CF12CF22C7C
:1019E200572C080083120313B30033080319FA2C8F
:1019F200FB2C0F2DAE1FFE2CFF2C0F2D2B09B5003B
:101A02002C09B6002D09B7002E09B800B50A031932
:101A1200B60A0319B70A0319B80A172D2E08B80017
:101A22002D08B7002C08B6002B08B5002E082D048F
:101A32002C042B04031D1E2D1F2D282D0030AE005B
:101A42000030AD000030AC000030AB00AE2D96305F
:101A5200AF002F08B4003A2D0130AF002F08B407B1
:101A620001300310B80CB70CB60CB50CFF3E031DC9
:101A7200322DFE303805031D3F2D402D2D2D5C2DBE
:101A82000130AF002F08B4070130B507003003184A
:101A92000130B607003003180130B70700300318D1
:101AA2000130B80701300310B80CB70CB60CB50CF6
:101AB200FF3E031D542DFF303805031D612D622D9D
:101AC200412D6E2D0130B4020130AF000310B50D6F
:101AD200B60DB70DB80DAF0B672DB71B712D722D5B
:101AE200782D023034020318772D782D632D3418A7
:101AF2007B2D7C2D842DFF30B505FF30B6057F3060
:101B0200B705FF30B8050310B40C3408AF00B001BC
:101B1200B101B20118300310AF0DB00DB10DB20D0D
:101B2200FF3E031D8C2D2F08B5043008B604310882
:101B3200B7043208B80433080319A02DA12DA62D2D
:101B4200AE1FA42DA52DA62DB8173808AE00370854
:101B5200AD003608AC003508AB0008000230831235
:101B62000313AE002E08A90001300A128A11E027E1
:101B72000A128A15003A031DBF2DC02DFF2D8312B4
:101B820003136608031DC62DC72DFF2D01300A164B
:101B92008A117F240A128A1583120313E601E60AC8
:101BA2006908053EAE00003003180130AF002F086F
:101BB200803AFF0080307F02031DE12D50302E025B
:101BC2000318E42DE52D4A2E831203136908053EFE
:101BD200AE002E08AC0000300A168A11B3260A1293
:101BE2008A15053083120313AE002E08E90769082F
:101BF2000A168A1197240A128A154A2E831203138F
:101C0200A901A90A01300A128A11E0270A128A15CB
:101C1200003A031D0D2E0E2E4A2E83120313660860
:101C2200031D142E152E4A2E01300A168A117F2406
:101C32000A128A1583120313E601E60A6908FB3EBB
:101C4200AE00FF3003180030AF002F08803AFF00CB
:101C520080307F02031D2F2E1F302E02031C322ED6
:101C6200332E4A2E831203136908FB3EAE002E0860
:101C7200AC0000300A168A11B3260A128A15053002
:101C820083120313E90269080A168A1197240A12B9
:101C92008A15023083120313AE002E08A900013008
:101CA2000A128A11E0270A128A15003A03195A2EDB
:101CB2005B2E6D2E83120313A901A90A01300A12A9
:101CC2008A11E0270A128A15003A0319692E6A2E30
:101CD2006D2E83120313E6010800831203136808B2
:101CE200031D742E752E8E2E0430AE002E08A60013
:101CF200A70100300A128A11FF260A128A1505303E
:101D020083120313AE002E08A600A70100300A12A8
:101D12008A11FF260A128A15302F0A30A6000030D7
:101D2200A70083160313640883120313A900831602
:101D32000313630883120313A8000A168A11ED26FF
:101D42000A128A15831203132608AE002E08AF006A
:101D52000A30A6000030A70083160313640883121A
:101D62000313A90083160313630883120313A80045
:101D72000A168A116C270A128A158312031326087F
:101D8200AE002E08B0000530AE002E08A9000030CB
:101D92000A128A11E0270A128A15013A031DD22E6D
:101DA200D32E022F053083120313AE002E08A60095
:101DB200A70100300A128A11FF260A128A1504307E
:101DC20083120313AE002E08A600A701A70A003053
:101DD2000A128A11FF260A128A1583120313300887
:101DE2000A168A1129270A128A1583120313AE00D2
:101DF2002E08A90003300A168A111F260A128A1514
:101E0200302F043083120313AE002E08A600A70160
:101E120000300A128A11FF260A128A15053083122F
:101E22000313AE002E08A600A701A70A00300A126B
:101E32008A11FF260A128A15831203132F080A1623
:101E42008A1129270A128A1583120313AE002E085B
:101E5200A90003300A168A111F260A128A150800E1
:101E6200FA010D30F4007408F0007A080A168A119B
:101E7200CD240A128A15A03E840083130008031998
:101E8200432F442FF52F0D30F4007408F0007A0828
:101E92000A168A11CD240A128A15A13E84008313E0
:101EA2000008F500840A0008F600840A0008F7001A
:101EB200840A0008F8007808770476047504031D84
:101EC200632F642FD52F0D30F4007408F0007A08C8
:101ED2000A168A11CD240A128A15A93E84000130FD
:101EE20083138007840A00300318013E031D800714
:101EF200840A00300318013E031D8007840A003063
:101F02000318013E80070D30F4007408F0007A08CF
:101F12000A168A11CD240A128A15A53E840083135B
:101F22000008F500840A0008F600840A0008F70099
:101F3200840A0008F8007808770476047504031907
:101F4200A32FA42FF52F0D30F4007408F0007A08A7
:101F52000A168A11CD240A128A15A53E840083131B
:101F62000008F500840A0008F600840A0008F70059
:101F7200840A0008F8000D30F9007908F0007A08A8
:101F82000A168A11CD240A128A15A13E8400750808
:101F920083138000840A76088000840A7708800010
:101FA200840A78088000F52F0D30F4007408F000E0
:101FB2007A080A168A11CD240A128A15A13E8400D3
:101FC200013083138002840A0030031C0130800236
:101FD200840A0030031C01308002840A0030031C92
:101FE20001308002033084020130F4007408FA07E1
:0E1FF20005307A02031CFE2FFF2F322F08004D
:10285C00043401343C3483120313690808008312D6
:10286C000313A7002708A6002608E8000800831217
:10287C000313A7002708A6002608FC000800640024
:10288C008001840A0406031900340406462C0A123B
:10289C008A1501200A168A11831603139114080055
:1028AC000A128A1501200A168A11831603131114B1
:1028BC0008000A128A1501200A168A1183160313BE
:1028CC0011150800831603131F13831203139F1390
:1028DC001F13831603139F170800831603139116F7
:1028EC000A128A1501200A168A118316031311166F
:1028FC00080083120313A7002708A6002608E5008A
:10290C0083160313E501E601080004308312031358
:10291C006706031D922C932C952C7D08962C67082A
:10292C00080083120313A8002808A600A701260894
:10293C0083160313E3008312031327088316031370
:10294C00E400080083120313A6000A128A15012062
:10295C000A168A1183120313260893008C1DB72CB8
:10296C00B82CB42C8C11080083120313A6000A1285
:10297C008A1501200A168A11031483120313260DDB
:10298C0093008C1DCA2CCB2CC72C8C110800F20088
:10299C00F301721CD22CD32CD72C7008F1007108C7
:1029AC00F3070310F00D0310F20C7208031DDF2C5B
:1029BC00E02CCF2C730808000A128A1501200A1685
:1029CC008A1183160313911583128C1DEE2CEF2C98
:1029DC00EA2C8C110A128A1501200A168A1183120C
:1029EC0003131308080083120313A900A801291C60
:1029FC00002D012D052D2608A7002708A807031078
:102A0C00A60D0310A90C2908031D0D2D0E2DFD2C50
:102A1C002808080083120313A7000A128A15012044
:102A2C000A168A11831203132708A600260793009F
:102A3C008C1D212D222D1E2D8C110030831603137D
:102A4C00111B0130080083120313A60103300A1670
:102A5C008A117C260A168A11043083120313AB00E8
:102A6C002B08A600A70100300A128A110A260A16A2
:102A7C008A11053083120313AB002B08A600A701A3
:102A8C0000300A128A110A260A168A1108008312CB
:102A9C000313A8005B2D0508752D0608752D070876
:102AAC00752D0808752D0908752D2808A600A70195
:102ABC002708003A0319632D742D2608003A0319D0
:102ACC00512D013A0319532D033A0319552D013A8F
:102ADC000319572D073A0319592D742D003008008E
:102AEC0083120313AE00AA01AB012608A800A901AA
:102AFC002808AC002908AD002E1C852D862D8C2DA8
:102B0C002C08AA070318AB0A2D08AB0701300310D9
:102B1C00AC0DAD0DFF3E031D8D2D0310AE0C2E081C
:102B2C00031D992D9A2D822D2B08A7002A08A6008B
:102B3C00080083120313AD012D080A128A15C9214E
:102B4C000A168A11013083120313AC002C08AD074E
:102B5C0005302D02031CB32DB42DA22D01300A1605
:102B6C008A113D240A168A11083083120313A60019
:102B7C000030A700A801A80A0A128A1564210A16B7
:102B8C008A110800023083120313AB002B08A60035
:102B9C00A70102300A128A110A260A168A11053078
:102BAC0083120313AB002B08A600A70102300A12F4
:102BBC008A110A260A168A110A168A1168240A161C
:102BCC008A1183120313A601A701A70A01300A1266
:102BDC008A110A260A168A1108000330831203137D
:102BEC00AB002B08A600A701A70A02300A128A1113
:102BFC000A260A168A11043083120313AB002B0821
:102C0C00A600A701A70A02300A128A110A260A1680
:102C1C008A118316031391019401831203139416E2
:102C2C009415141194101410CF30831603139300C1
:102C3C00080083120313AC00322E290885004B2E9A
:102C4C00290886004B2E290887004B2E290888005E
:102C5C004B2E290889004B2E2C08AA00AB012B08FF
:102C6C00003A03193A2E4B2E2A08003A0319232E48
:102C7C00013A0319262E033A0319292E013A031996
:102C8C002C2E073A03192F2E4B2E080083120313F8
:102C9C00AA001F14C730A80028089F052A08A800FE
:102CAC0002300310A80DFF3E031D572E0310280DF4
:102CBC00A90029089F04033083120313A90097303D
:102CCC00A800A80B672EA90B672E831203131F15E0
:102CDC001F19712E722E6E2E1F101E08A700831640
:102CEC0003131E0883120313A60008008312031398
:102CFC00A900992E2608831603138500B22E2608E8
:102D0C00831603138600B22E26088316031387003E
:102D1C00B22E2608831603138800B22E26088316BB
:102D2C0003138900B22E2908A700A8012808003A2D
:102D3C000319A12EB22E2708003A0319802E013A4E
:102D4C000319852E033A03198A2E013A03198F2E83
:102D5C00073A0319942EB22E080083120313AD0008
:102D6C000A168A11F3250A168A110A168A11562494
:102D7C000A168A11C62E0A168A114D240A168A11B1
:102D8C0050300A168A1110250A168A11003A031DB2
:102D9C00D02ED12EC12E00300A168A11A8240A1664
:102DAC008A11831203132D080A168A11A8240A16F5
:102DBC008A11831203132C080A168A11A8240A16E6
:102DCC008A110A168A115F240A168A1108008312C6
:102DDC000313260827040319F42EF52E242FAB0118
:102DEC00AB0A032F01300310A60DA70DFF3E031DE8
:102DFC00F92E0130AA002A08AB07A71F062F072FB0
:102E0C00F82E27082902031D0D2F26082802031C63
:102E1C00102F112F172F2608A8022708031CA9030F
:102E2C00A90201300310A70CA60CFF3E031D182F9E
:102E3C000130AB02031D232F242F072F2908A700D5
:102E4C002808A600080083120313A800432F3F3064
:102E5C006B2F06306B2F5B306B2F4F306B2F663028
:102E6C006B2F6D306B2F7D306B2F07306B2F7F30BE
:102E7C006B2F6F306B2F00306B2F2808A600A7012B
:102E8C002708003A03194B2F412F2608003A031943
:102E9C002D2F013A03192F2F033A0319312F013A21
:102EAC000319332F073A0319352F013A0319372F1A
:102EBC00033A0319392F013A03193B2F0F3A03191F
:102ECC003D2F013A03193F2F412F080083120313A2
:102EDC00AC01AD01260827040319752F762FAD2FF1
:102EEC00AB01AB0A842F01300310A60DA70DFF3EDA
:102EFC00031D7A2F0130AA002A08AB07A71F872FC2
:102F0C00882F792F01300310AC0DAD0DFF3E031D42
:102F1C00892F27082902031D952F26082802031C38
:102F2C00982F992FA02F2608A8022708031CA90365
:102F3C00A9022C1401300310A70CA60CFF3E031D94
:102F4C00A12F0130AB02031DAC2FAD2F882F2D0804
:102F5C00A7002C08A6000800023083120313AF0050
:102F6C002F08A600A701A70A01300A128A110A2607
:102F7C000A168A1183120313A601A60AA701A70A2F
:102F8C0001300A128A110A260A168A1100300A1216
:102F9C008A150E200A168A1183120313AF002F080C
:102FAC00E90023306902031CDC2FDD2FFB2F4C3092
:102FBC0069020318E22FE32FFB2F0530A600003027
:102FCC00A7006908AF00B0012F08A8003008A900BD
:102FDC000A128A1509210A168A118312031326086C
:102FEC0027040319FA2FFB2FFF2F3C30AF002F08BB
:042FFC00E9000800E0
:02400E00723FFF
:00000001FF
