:020000040000FA
:100000000A128A111228FF34FE00030E8312031312
:10001000D0000408D1000A08D2007F08D3000A12D9
:100020008A115E2F0A128A1115280A128A11FE27D8
:100030000A128A11E5000A128A11FF270A128A1190
:10004000E6000A128A1103200A128A11FD008313A6
:10005000203084004E300A128A155F240A128A1159
:10006000FB01FC0183010A128A114E2EFF000030B1
:100070008A007F0882073B283C280A128A11B32B8A
:100080000A128A11F42A0A128A11042FFF00003082
:100090008A007F0882074B280A128A11252A8312B8
:1000A0000313D8002A295503031D57285828682808
:1000B0000130D600540A5E280310D60DFF3E031D02
:1000C0005C285608D7005708831603138504432974
:1000D0005508031D6C286D2843290130D600540AA9
:1000E00073280310D60DFF3E031D71285608FF3AF2
:1000F000D700570883160313850543295503031DAD
:100100008228832893280130D600540A89280310B6
:10011000D60DFF3E031D87285608D70057088316C3
:100120000313860443295508031D9728982843295B
:100130000130D600540A9E280310D60DFF3E031D41
:100140009C285608FF3AD7005708831603138605E4
:1001500043295503031DAD28AE28BE280130D60023
:10016000540AB4280310D60DFF3E031DB2285608CA
:10017000D700570883160313870443295508031D26
:10018000C228C32843290130D600540AC9280310C5
:10019000D60DFF3E031DC7285608FF3AD700570863
:1001A00083160313870543295503031DD828D9282F
:1001B000E9280130D600540ADF280310D60DFF3E8F
:1001C000031DDD285608D70057088316031388043B
:1001D00043295508031DED28EE2843290130D60098
:1001E000540AF4280310D60DFF3E031DF2285608CA
:1001F000FF3AD70057088316031388054329550390
:10020000031D0329042914290130D600540A0A29A0
:100210000310D60DFF3E031D08295608D7005708C6
:1002200083160313890443295508031D1829192926
:1002300043290130D600540A1F290310D60DFF3E72
:10024000031D1D295608FF3AD700570883160313CC
:10025000890543295808D600D7015708003A0319E1
:10026000322943295608003A03195328013A031941
:100270007E28033A0319A928013A0319D428073A1A
:100280000319FF284329080083120313D8000B2AFF
:100290005503031D4C294D295B290130D600540A12
:1002A00053290310D60DFF3E031D51295608D700D0
:1002B00057088504242A5508031D5F296029242A2C
:1002C0000130D600540A66290310D60DFF3E031DE7
:1002D00064295608FF3AD70057088505242A550394
:1002E000031D7329742982290130D600540A7A2902
:1002F0000310D60DFF3E031D78295608D700570876
:100300008604242A5508031D86298729242A0130BA
:10031000D600540A8D290310D60DFF3E031D8B29EC
:100320005608FF3AD70057088605242A5503031DAF
:100330009A299B29A9290130D600540AA129031022
:10034000D60DFF3E031D9F295608D7005708870486
:10035000242A5508031DAD29AE29242A0130D600D0
:10036000540AB4290310D60DFF3E031DB2295608C6
:10037000FF3AD70057088705242A5503031DC129D2
:10038000C229D0290130D600540AC8290310D60D3D
:10039000FF3E031DC6295608D70057088804242AA3
:1003A0005508031DD429D529242A0130D600540A22
:1003B000DB290310D60DFF3E031DD9295608FF3A4D
:1003C000D70057088805242A5503031DE829E92981
:1003D000F7290130D600540AEF290310D60DFF3E4D
:1003E000031DED295608D70057088904242A55080B
:1003F000031DFB29FC29242A0130D600540A022AB5
:100400000310D60DFF3E031D002A5608FF3AD70001
:1004100057088905242A5808D600D7015708003AFA
:100420000319132A242A5608003A03194829013AC5
:1004300003196F29033A03199629013A0319BD29B3
:10044000073A0319E429242A0800FA010D30F400C0
:100450007408F0007A080A128A15D5240A128A1143
:10046000203E8400831300080319372A382AE92A1A
:100470000D30F4007408F0007A080A128A15D524A9
:100480000A128A11213E840083130008F500840AB1
:100490000008F600840A0008F700840A0008F80043
:1004A0007808770476047504031D572A582AC92A48
:1004B0000D30F4007408F0007A080A128A15D52469
:1004C0000A128A11293E8400013083138007840AAE
:1004D00000300318013E031D8007840A0030031812
:1004E000013E031D8007840A00300318013E800787
:1004F0000D30F4007408F0007A080A128A15D52429
:100500000A128A11253E840083130008F500840A2C
:100510000008F600840A0008F700840A0008F800C2
:1005200078087704760475040319972A982AE92A2B
:100530000D30F4007408F0007A080A128A15D524E8
:100540000A128A11253E840083130008F500840AEC
:100550000008F600840A0008F700840A0008F80082
:100560000D30F9007908F0007A080A128A15D524AE
:100570000A128A11213E8400750883138000840AC0
:1005800076088000840A77088000840A7808800052
:10059000E92A0D30F4007408F0007A080A128A156E
:1005A000D5240A128A11213E84000130831380026F
:1005B000840A0030031C01308002840A0030031CCE
:1005C00001308002840A0030031C013080020330B5
:1005D00084020130F4007408FA0703307A02031C25
:1005E000F22AF32A262A0800023083120313DC00C1
:1005F0005C08D70001300A128A1531250A128A11C7
:10060000003A031D042B052B442B831203134D08C2
:10061000031D0B2B0C2B442B01300A128A1582244C
:100620000A128A1183120313CD01CD0A6608053E12
:10063000DC00003003180130DD005D08803AFF0067
:1006400080307F02031D262B50305C020318292BBB
:100650002A2B8F2B831203136608053EDC005C08EF
:10066000DA0000300A128A1551260A128A11053062
:1006700083120313DC005C08E60766080A128A1579
:100680008C240A128A118F2B83120313D701D70AE5
:1006900001300A128A1531250A128A11003A031D07
:1006A000522B532B8F2B831203134D08031D592BF1
:1006B0005A2B8F2B01300A128A1582240A128A11B2
:1006C00083120313CD01CD0A6608FB3EDC00FF3028
:1006D00003180030DD005D08803AFF0080307F02A3
:1006E000031D742B1F305C02031C772B782B8F2B80
:1006F000831203136608FB3EDC005C08DA0000305E
:100700000A128A1551260A128A1105308312031320
:10071000E60266080A128A158C240A128A1102302F
:1007200083120313DC005C08D70001300A128A151B
:1007300031250A128A11003A03199F2BA02BB22BE4
:1007400083120313D701D70A01300A128A15312503
:100750000A128A11003A0319AE2BAF2BB22B831267
:100760000313CD010800831203136508031DB92B81
:10077000BA2BD32B0230DC005C08D400D50100304A
:100780000A128A1144210A128A11033083120313B8
:10079000DC005C08D400D50100300A128A11442123
:1007A0000A128A11652C0A30D4000030D50048089E
:1007B000D7004708D6000A128A158B260A128A111A
:1007C000831203135408DC005C08DD000A30D400F7
:1007D0000030D5004808D7004708D6000A128A1111
:1007E000B8270A128A11831203135408DC005C082C
:1007F000DE000330DC005C08D70000300A128A15E6
:1008000031250A128A11013A031D072C082C372CB6
:10081000033083120313DC005C08D400D5010030E0
:100820000A128A1144210A128A1102308312031318
:10083000DC005C08D400D501D50A00300A128A1108
:1008400044210A128A11831203135E080A128A15C0
:10085000C7260A128A1183120313DC005C08D70032
:1008600003300A128A15ED250A128A11652C02300E
:1008700083120313DC005C08D400D50100300A1297
:100880008A1144210A128A11033083120313DC00F7
:100890005C08D400D501D50A00300A128A1144211F
:1008A0000A128A11831203135D080A128A15C726D9
:1008B0000A128A1183120313DC005C08D70003308C
:1008C0000A128A15ED250A128A11080083120313F1
:1008D000E4010D30DF005F08D40064080A128A15B5
:1008E00001250A128A11293E84008313000883120D
:1008F0000313E000840A0008E100840A0008E20013
:10090000840A0008E30063086204610460040319B8
:100910008A2C8B2CEA2C0D30DF005F08D400640891
:100920000A128A1501250A128A11203E84008313B7
:1009300000080A128A1136200A128A110D30831219
:100940000313DF005F08D40064080A128A1501252A
:100950000A128A11293E8400013083138002840A1E
:100960000030031C01308002840A0030031C013077
:100970008002840A0030031C0130800203308402AC
:100980000D3083120313DF005F08D40064080A12DD
:100990008A1501250A128A11253E84008313000856
:1009A00083120313E000840A0008E100840A0008AF
:1009B000E200840A0008E300630862046104600442
:1009C000031DE32CE42CEA2C64080A128A11832507
:1009D0000A128A11013083120313DF005F08E40753
:1009E00003306402031CF52CF62C692C08008312DA
:1009F0000313E200E301002D0130E0006008E3078B
:100A00000D30E0006008D40063080A128A15012541
:100A10000A128A11203E8400831300080319112D45
:100A2000122D1A2D0330831203136302031C192D98
:100A30001A2DFC2C0330831203136306031D212D92
:100A4000222D232D822D6208E0000D30E100610887
:100A5000D40063080A128A1501250A128A11203E61
:100A60008400831203136008831380000D30E000BC
:100A70006008D40063080A128A1501250A128A1137
:100A8000213E840083120313580883138000840AD4
:100A900059088000840A5A088000840A5B08800094
:100AA0000D30E0006008D40063080A128A150125A1
:100AB0000A128A11253E8400831203135C088313F3
:100AC0008000840A5D088000840A5E088000840A31
:100AD0005F0880000D30E0006008D40063080A124F
:100AE0008A1501250A128A11293E840000308313D9
:100AF0008000840A00308000840A00308000840A6C
:100B000000308000080083120313D900033059021B
:100B100003188B2D8C2DE82D0D30D8005808D400EB
:100B200059080A128A1501250A128A11203E8400EA
:100B3000831380010D3083120313D8005808D400AA
:100B400059080A128A1501250A128A11213E8400C9
:100B5000003083138000840A00308000840A003053
:100B60008000840A003080000D3083120313D80007
:100B70005808D40059080A128A1501250A128A1148
:100B8000253E8400003083138000840A00308000FA
:100B9000840A00308000840A003080000D30831207
:100BA0000313D8005808D40059080A128A150125E1
:100BB0000A128A11293E8400003083138000840ABF
:100BC00000308000840A00308000840A00308000F9
:100BD000080083160313811281111E2E831603133E
:100BE000011081100111442E83160313011481108A
:100BF0000111442E83160313011081140111442E98
:100C000083160313011481140111442E8316031358
:100C1000011081100115442E831603130114811055
:100C20000115442E83160313011081140115442E5F
:100C300083160313011481140115442E8312031328
:100C40005508003A0319282E013A03193F2E442E65
:100C50005408023A0319EE2D063A0319F42D0C3A02
:100C60000319FA2D183A0319002E303A0319062EEB
:100C7000603A03190C2EC03A0319122E442E540860
:100C8000003A0319182E442E831256080319492ED0
:100C90004A2E4D2E0B178B178B1608000A128A1539
:100CA000A7270A128A110A128A1598250A128A1190
:100CB000003083120313DB000030DA000030D9006B
:100CC0001430D8000030DF000030DE000030DD00DE
:100CD0001430DC0005300A128A11F7240A128A1136
:100CE000003083120313DB000030DA000030D9003B
:100CF0000030D8000030DF000030DE000030DD00C2
:100D00001430DC0008300A128A11F7240A128A1102
:100D1000003083120313DB000030DA000030D9000A
:100D20000530D8000030DF000030DE000030DD008C
:100D30000530DC0002300A128A11F7240A128A11E7
:100D40000A128A1166240A128A11A02E0A128A1126
:100D5000122883120313DA01D71FAF2EB02EB72E3D
:100D6000D609D709D60A0319D70ADA01DA0AD51F34
:100D7000BA2EBB2EC02ED409D509D40A0319D50A20
:100D8000540855040319C52EC62EF52ED901D90ACB
:100D9000D42E01300310D40DD50DFF3E031DCA2EF5
:100DA0000130D8005808D907D51FD72ED82EC92E04
:100DB00055085702031DDE2E54085602031CE12E6F
:100DC000E22EE82E5408D6025508031CD703D7029A
:100DD00001300310D50CD40CFF3E031DE92E013069
:100DE000D902031DF42EF52ED82E5A080319F92E18
:100DF000FA2EFF2ED609D709D60A0319D70A5708A3
:100E0000D5005608D4000800FA30831203134906AF
:100E10004A04031D0C2F0D2F152F4C03031D112FFA
:100E2000122F152FCC01C901CA014C080319192F23
:100E30001A2F4D2F0130C9070318CA0A0030CA07FC
:100E40003230D4000030D5004A08D7004908D60017
:100E50000A128A158B260A128A1183120313540868
:100E60005504031D342F352F532F0A128A154B2496
:100E70000A128A11013A031D3E2F3F2F462F0030E0
:100E80000A128A154F240A128A11532F01300A12AE
:100E90008A154F240A128A11532F01300A128A151B
:100EA0004F240A128A110A128A1547240A128A113B
:100EB0000A128A158C240A128A1108000B1D612F50
:100EC000622F692F0B117C080A128A1146200A1220
:100ED0008A11831203130C08CE0000300C18013065
:100EE000013E742F0310CE0CFF3E031D722F4E1CCB
:100EF0007A2F7B2F8C2F0130CE0000300C18013060
:100F0000013E842F0310CE0DFF3E031D822F4E089D
:100F1000FF3ACF004F088C050C08CE0000308C182B
:100F20000130013E952F0310CE0CFF3E031D932F81
:100F30004E1C9B2F9C2FAD2F0130CE0000308C1803
:100F40000130013EA52F0310CE0DFF3E031DA32F40
:100F50004E08FF3ACF004F088C055308FF00520897
:100F60008A0051088400500E8300FE0E7E0E090098
:100F700083120313D901DA01540855040319C12F50
:100F8000C22FF92FDB01DB0AD02F01300310D40D63
:100F9000D50DFF3E031DC62F0130D8005808DB07D2
:100FA000D51FD32FD42FC52F01300310D90DDA0D43
:100FB000FF3E031DD52F55085702031DE12F54088E
:100FC0005602031CE42FE52FEC2F5408D6025508D7
:100FD000031CD703D702591401300310D50CD40CCD
:100FE000FF3E031DED2F0130DB02031DF82FF92F0B
:100FF000D42F5A08D5005908D400080001343C34D5
:10188E008312031366080800831203136508080009
:10189E0083120313D5005508D4005408E500080040
:1018AE0083120313D5005508D4005408FC00080019
:1018BE0064008001840A0406031900340406602CB7
:1018CE000A128A15A3240A128A1583160313911479
:1018DE0008000A128A15A3240A128A158316031306
:1018EE00111408000A128A15A3240A128A158316E7
:1018FE0003131115080083120313D5005508D400E5
:10190E005408CC00C901CA01080083120313D60083
:10191E005608D400D5015408C7005508C800080061
:10192E008316031391160A128A15A3240A128A1516
:10193E008316031311160800831603131419A82C0B
:10194E00A92CA32C11081F39031DAE2CAF2CA32CD0
:10195E00080083120313D4000A128A15A3240A1254
:10196E008A1583120313540893008C1DBF2CC02CB0
:10197E00BC2C8C11080083120313D4000A128A1592
:10198E00A3240A128A15031483120313540D930011
:10199E008C1DD22CD32CCF2C8C110800F200F3010D
:1019AE00721CDA2CDB2CDF2C7008F1007108F307A7
:1019BE000310F00D0310F20C7208031DE72CE82C37
:1019CE00D72C730808000A128A15A3240A128A1546
:1019DE0083160313911583128C1DF62CF72CF22C03
:1019EE008C110A128A15A3240A128A158312031364
:1019FE001308080083120313D700D601571C082DB5
:101A0E00092D0D2D5408D5005508D6070310D40DF9
:101A1E000310D70C5708031D152D162D052D56082E
:101A2E00080083120313D5000A128A15A3240A1282
:101A3E008A15831203135508D400540793008C1D86
:101A4E00292D2A2D262D8C11003083160313111BE0
:101A5E000130080083120313D90059080A128A159F
:101A6E006F250A128A1583120313D8005808DA005C
:101A7E005A08D800570A452D0310D80CFF3E031DF7
:101A8E00432D58080139080083120313D401033083
:101A9E000A128A151A260A128A15023083120313A5
:101AAE00D9005908D400D50100300A128A114F20EE
:101ABE000A128A15033083120313D9005908D40071
:101ACE00D50100300A128A114F200A128A15080019
:101ADE0083120313D6007D2D0508972D0608972D2A
:101AEE000708972D0808972D0908972D5608D4003A
:101AFE00D5015508003A0319852D962D5408003A44
:101B0E000319732D013A0319752D033A0319772D15
:101B1E00013A0319792D073A03197B2D962D0030C2
:101B2E00080083120313DB015B080A128A11832556
:101B3E000A128A15013083120313DA005A08DB07E2
:101B4E0003305B02031CAC2DAD2D9B2D01300A1210
:101B5E008A1557240A128A15083083120313D400EB
:101B6E000030D500D601D60A0A128A11E9250A12CA
:101B7E008A150800033083120313D9005908D400C4
:101B8E00D501D50A02300A128A114F200A128A157F
:101B9E00043083120313D9005908D400D501D50A95
:101BAE0002300A128A114F200A128A158316031365
:101BBE009101940183120313941694151411941029
:101BCE001410CF30831603139300080083120313EF
:101BDE00DA00002E57088500192E57088600192E98
:101BEE0057088700192E57088800192E57088900A4
:101BFE00192E5A08D800D9015908003A0319082E8F
:101C0E00192E5808003A0319F12D013A0319F42D33
:101C1E00033A0319F72D013A0319FA2D073A03195E
:101C2E00FD2D192E080083120313D700372E5408EA
:101C3E00831603138500502E540883160313860053
:101C4E00502E5408831603138700502E5408831603
:101C5E0003138800502E5408831603138900502E48
:101C6E005708D500D6015608003A03193F2E502EBC
:101C7E005508003A03191E2E013A0319232E033A72
:101C8E000319282E013A03192D2E073A0319322E65
:101C9E00502E080083120313DB000A128A15C12589
:101CAE000A128A150A128A1570240A128A15642ECF
:101CBE000A128A1567240A128A1550300A128A15DA
:101CCE0018250A128A15003A031D6E2E6F2E5F2EEE
:101CDE0000300A128A15B0240A128A1583120313D1
:101CEE005B080A128A15B0240A128A15831203138E
:101CFE005A080A128A15B0240A128A150A128A156F
:101D0E0079240A128A150800831203135408550405
:101D1E000319922E932EC22ED901D90AA12E01306B
:101D2E000310D40DD50DFF3E031D972E0130D800A4
:101D3E005808D907D51FA42EA52E962E5508570242
:101D4E00031DAB2E54085602031CAE2EAF2EB52E1D
:101D5E005408D6025508031CD703D70201300310CE
:101D6E00D50CD40CFF3E031DB62E0130D902031D37
:101D7E00C12EC22EA52E5708D5005608D400080035
:101D8E0083120313D600E12E3F30092F0630092FA0
:101D9E005B30092F4F30092F6630092F6D30092F18
:101DAE007D30092F0730092F7F30092F6F30092F13
:101DBE000030092F5608D400D5015508003A0319F2
:101DCE00E92EDF2E5408003A0319CB2E013A0319DF
:101DDE00CD2E033A0319CF2E013A0319D12E073A0D
:101DEE000319D32E013A0319D52E033A0319D72E10
:101DFE00013A0319D92E0F3A0319DB2E013A0319B2
:101E0E00DD2EDF2E0800023083120313DD005D0885
:101E1E00D400D501D50A01300A128A114F200A12B8
:101E2E008A1583120313D401D40AD501D50A0130C1
:101E3E000A128A114F200A128A1500300A128A15C8
:101E4E0058270A128A1583120313DD005D08E60077
:101E5E0023306602031C342F352F532F4C3066026D
:101E6E0003183A2F3B2F532F0530D4000030D500E6
:101E7E006608DD00DE015D08D6005E08D7000A1296
:101E8E008A11A9260A128A158312031354085504BF
:101E9E000319522F532F572F3C30DD005D08E600FB
:101EAE00080083120313DB000A128A15C1250A12D9
:101EBE008A150A128A1570240A128A156B2F0A12B5
:101ECE008A1567240A128A1550300A128A151825A7
:101EDE000A128A15003A031D752F762F662F0030D1
:101EEE000A128A15B0240A128A15831203135B088C
:101EFE000A128A15B0240A128A150A128A15672444
:101F0E000A128A1550300A128A15C2240A128A152C
:101F1E000A128A15EA240A128A1583120313DA00AA
:101F2E005A08DC000A128A1597240A128A150A1218
:101F3E008A1579240A128A15831203135C08080085
:101F4E000A128A150A270A128A1501300A128A15F0
:101F5E004F240A128A150A128A1547240A128A1564
:101F6E000A128A158C240A128A1583120313D701BA
:101F7E0001300A128A15ED250A128A150A128A15DF
:101F8E004B250A128A15033083120313DF005F08F4
:101F9E00D400D50101300A128A114F200A128A1577
:101FAE00043083120313DF005F08D400D501013023
:101FBE000A128A114F200A128A1505308312031352
:101FCE00DF005F08D400D50101300A128A114F20BC
:101FDE000A128A15053083120313DF005F08D4003E
:101FEE00D501D50A01300A128A1144210A128A1526
:021FFE000800D9
:02400E00723FFF
:00000001FF
