:020000040000FA
:100000000A128A111228FF34FE00030E8312031312
:10001000D0000408D1000A08D2007F08D3000A12D9
:100020008A11632F0A128A1115280A128A154C2484
:100030000A128A11E5000A128A154D240A128A1141
:10004000E6000A128A1103200A128A11FD008313A6
:10005000203084004E300A128A1566240A128A1152
:10006000FB01FC0183010A128A114E2EFF000030B1
:100070008A007F0882073B283C280A128A11B32B8A
:100080000A128A11F42A0A128A11092FFF0000307D
:100090008A007F0882074B280A128A11252A8312B8
:1000A0000313D8002A295503031D57285828682808
:1000B0000130D600540A5E280310D60DFF3E031D02
:1000C0005C285608D7005708831603138504432974
:1000D0005508031D6C286D2843290130D600540AA9
:1000E00073280310D60DFF3E031D71285608FF3AF2
:1000F000D700570883160313850543295503031DAD
:100100008228832893280130D600540A89280310B6
:10011000D60DFF3E031D87285608D70057088316C3
:100120000313860443295508031D9728982843295B
:100130000130D600540A9E280310D60DFF3E031D41
:100140009C285608FF3AD7005708831603138605E4
:1001500043295503031DAD28AE28BE280130D60023
:10016000540AB4280310D60DFF3E031DB2285608CA
:10017000D700570883160313870443295508031D26
:10018000C228C32843290130D600540AC9280310C5
:10019000D60DFF3E031DC7285608FF3AD700570863
:1001A00083160313870543295503031DD828D9282F
:1001B000E9280130D600540ADF280310D60DFF3E8F
:1001C000031DDD285608D70057088316031388043B
:1001D00043295508031DED28EE2843290130D60098
:1001E000540AF4280310D60DFF3E031DF2285608CA
:1001F000FF3AD70057088316031388054329550390
:10020000031D0329042914290130D600540A0A29A0
:100210000310D60DFF3E031D08295608D7005708C6
:1002200083160313890443295508031D1829192926
:1002300043290130D600540A1F290310D60DFF3E72
:10024000031D1D295608FF3AD700570883160313CC
:10025000890543295808D600D7015708003A0319E1
:10026000322943295608003A03195328013A031941
:100270007E28033A0319A928013A0319D428073A1A
:100280000319FF284329080083120313D8000B2AFF
:100290005503031D4C294D295B290130D600540A12
:1002A00053290310D60DFF3E031D51295608D700D0
:1002B00057088504242A5508031D5F296029242A2C
:1002C0000130D600540A66290310D60DFF3E031DE7
:1002D00064295608FF3AD70057088505242A550394
:1002E000031D7329742982290130D600540A7A2902
:1002F0000310D60DFF3E031D78295608D700570876
:100300008604242A5508031D86298729242A0130BA
:10031000D600540A8D290310D60DFF3E031D8B29EC
:100320005608FF3AD70057088605242A5503031DAF
:100330009A299B29A9290130D600540AA129031022
:10034000D60DFF3E031D9F295608D7005708870486
:10035000242A5508031DAD29AE29242A0130D600D0
:10036000540AB4290310D60DFF3E031DB2295608C6
:10037000FF3AD70057088705242A5503031DC129D2
:10038000C229D0290130D600540AC8290310D60D3D
:10039000FF3E031DC6295608D70057088804242AA3
:1003A0005508031DD429D529242A0130D600540A22
:1003B000DB290310D60DFF3E031DD9295608FF3A4D
:1003C000D70057088805242A5503031DE829E92981
:1003D000F7290130D600540AEF290310D60DFF3E4D
:1003E000031DED295608D70057088904242A55080B
:1003F000031DFB29FC29242A0130D600540A022AB5
:100400000310D60DFF3E031D002A5608FF3AD70001
:1004100057088905242A5808D600D7015708003AFA
:100420000319132A242A5608003A03194829013AC5
:1004300003196F29033A03199629013A0319BD29B3
:10044000073A0319E429242A0800FA010D30F400C0
:100450007408F0007A080A128A15DC240A128A113C
:10046000203E8400831300080319372A382AE92A1A
:100470000D30F4007408F0007A080A128A15DC24A2
:100480000A128A11213E840083130008F500840AB1
:100490000008F600840A0008F700840A0008F80043
:1004A0007808770476047504031D572A582AC92A48
:1004B0000D30F4007408F0007A080A128A15DC2462
:1004C0000A128A11293E8400013083138007840AAE
:1004D00000300318013E031D8007840A0030031812
:1004E000013E031D8007840A00300318013E800787
:1004F0000D30F4007408F0007A080A128A15DC2422
:100500000A128A11253E840083130008F500840A2C
:100510000008F600840A0008F700840A0008F800C2
:1005200078087704760475040319972A982AE92A2B
:100530000D30F4007408F0007A080A128A15DC24E1
:100540000A128A11253E840083130008F500840AEC
:100550000008F600840A0008F700840A0008F80082
:100560000D30F9007908F0007A080A128A15DC24A7
:100570000A128A11213E8400750883138000840AC0
:1005800076088000840A77088000840A7808800052
:10059000E92A0D30F4007408F0007A080A128A156E
:1005A000DC240A128A11213E840001308313800268
:1005B000840A0030031C01308002840A0030031CCE
:1005C00001308002840A0030031C013080020330B5
:1005D00084020130F4007408FA0703307A02031C25
:1005E000F22AF32A262A0800023083120313DB00C2
:1005F0005B08D70001300A128A1538250A128A11C1
:10060000003A031D042B052B442B831203134D08C2
:10061000031D0B2B0C2B442B01300A128A15892445
:100620000A128A1183120313CD01CD0A6608053E12
:10063000DB00003003180130DC005C08803AFF006A
:1006400080307F02031D262B50305B020318292BBC
:100650002A2B8F2B831203136608053EDB005B08F1
:10066000D60000300A128A1521260A128A11053096
:1006700083120313DB005B08E60766080A128A157B
:1006800093240A128A118F2B83120313D701D70ADE
:1006900001300A128A1538250A128A11003A031D00
:1006A000522B532B8F2B831203134D08031D592BF1
:1006B0005A2B8F2B01300A128A1589240A128A11AB
:1006C00083120313CD01CD0A6608FB3EDB00FF3029
:1006D00003180030DC005C08803AFF0080307F02A5
:1006E000031D742B1F305B02031C772B782B8F2B81
:1006F000831203136608FB3EDB005B08D600003064
:100700000A128A1521260A128A1105308312031350
:10071000E60266080A128A1593240A128A11023028
:1007200083120313DB005B08D70001300A128A151D
:1007300038250A128A11003A03199F2BA02BB22BDD
:1007400083120313D701D70A01300A128A153825FC
:100750000A128A11003A0319AE2BAF2BB22B831267
:100760000313CD010800831203136508031DB92B81
:10077000BA2BD32B0230DC005C08D400D50100304A
:100780000A128A1144210A128A11033083120313B8
:10079000DC005C08D400D50100300A128A11442123
:1007A0000A128A11652C0A30D4000030D50048089E
:1007B000D7004708D6000A128A158D260A128A1118
:1007C000831203135408DC005C08DD000A30D400F7
:1007D0000030D5004808D7004708D6000A128A150D
:1007E000C9260A128A11831203135408DC005C081C
:1007F000DE000330DC005C08D70000300A128A15E6
:1008000038250A128A11013A031D072C082C372CAF
:10081000033083120313DC005C08D400D5010030E0
:100820000A128A1144210A128A1102308312031318
:10083000DC005C08D400D501D50A00300A128A1108
:1008400044210A128A11831203135E080A128A11C4
:10085000BD270A128A1183120313DC005C08D7003B
:1008600003300A128A15F4250A128A11652C023007
:1008700083120313DC005C08D400D50100300A1297
:100880008A1144210A128A11033083120313DC00F7
:100890005C08D400D501D50A00300A128A1144211F
:1008A0000A128A11831203135D080A128A11BD27E6
:1008B0000A128A1183120313DC005C08D70003308C
:1008C0000A128A15F4250A128A11080083120313EA
:1008D000E4010D30DF005F08D40064080A128A15B5
:1008E00008250A128A11293E840083130008831206
:1008F0000313E000840A0008E100840A0008E20013
:10090000840A0008E30063086204610460040319B8
:100910008A2C8B2CEA2C0D30DF005F08D400640891
:100920000A128A1508250A128A11203E84008313B0
:1009300000080A128A1136200A128A110D30831219
:100940000313DF005F08D40064080A128A15082523
:100950000A128A11293E8400013083138002840A1E
:100960000030031C01308002840A0030031C013077
:100970008002840A0030031C0130800203308402AC
:100980000D3083120313DF005F08D40064080A12DD
:100990008A1508250A128A11253E8400831300084F
:1009A00083120313E000840A0008E100840A0008AF
:1009B000E200840A0008E300630862046104600442
:1009C000031DE32CE42CEA2C64080A128A11832507
:1009D0000A128A11013083120313DF005F08E40753
:1009E00003306402031CF52CF62C692C08008312DA
:1009F0000313E200E301002D0130E0006008E3078B
:100A00000D30E0006008D40063080A128A1508253A
:100A10000A128A11203E8400831300080319112D45
:100A2000122D1A2D0330831203136302031C192D98
:100A30001A2DFC2C0330831203136306031D212D92
:100A4000222D232D822D6208E0000D30E100610887
:100A5000D40063080A128A1508250A128A11203E5A
:100A60008400831203136008831380000D30E000BC
:100A70006008D40063080A128A1508250A128A1130
:100A8000213E840083120313580883138000840AD4
:100A900059088000840A5A088000840A5B08800094
:100AA0000D30E0006008D40063080A128A1508259A
:100AB0000A128A11253E8400831203135C088313F3
:100AC0008000840A5D088000840A5E088000840A31
:100AD0005F0880000D30E0006008D40063080A124F
:100AE0008A1508250A128A11293E840000308313D2
:100AF0008000840A00308000840A00308000840A6C
:100B000000308000080083120313D900033059021B
:100B100003188B2D8C2DE82D0D30D8005808D400EB
:100B200059080A128A1508250A128A11203E8400E3
:100B3000831380010D3083120313D8005808D400AA
:100B400059080A128A1508250A128A11213E8400C2
:100B5000003083138000840A00308000840A003053
:100B60008000840A003080000D3083120313D80007
:100B70005808D40059080A128A1508250A128A1141
:100B8000253E8400003083138000840A00308000FA
:100B9000840A00308000840A003080000D30831207
:100BA0000313D8005808D40059080A128A150825DA
:100BB0000A128A11293E8400003083138000840ABF
:100BC00000308000840A00308000840A00308000F9
:100BD000080083160313811281111E2E831603133E
:100BE000011081100111442E83160313011481108A
:100BF0000111442E83160313011081140111442E98
:100C000083160313011481140111442E8316031358
:100C1000011081100115442E831603130114811055
:100C20000115442E83160313011081140115442E5F
:100C300083160313011481140115442E8312031328
:100C40005508003A0319282E013A03193F2E442E65
:100C50005408023A0319EE2D063A0319F42D0C3A02
:100C60000319FA2D183A0319002E303A0319062EEB
:100C7000603A03190C2EC03A0319122E442E540860
:100C8000003A0319182E442E831256080319492ED0
:100C90004A2E4D2E0B178B178B1608000A128A1539
:100CA000C8250A128A110A128A15A7270A128A1160
:100CB0000A128A159F250A128A1100308312031323
:100CC000DB000030DA000030D9001430D8000030EA
:100CD000DF000030DE000030DD001430DC000530C5
:100CE0000A128A11F7240A128A11003083120313A0
:100CF000DB000030DA000030D9000030D8000030CE
:100D0000DF000030DE000030DD001430DC00083091
:100D10000A128A11F7240A128A110030831203136F
:100D2000DB000030DA000030D9000530D800003098
:100D3000DF000030DE000030DD000530DC00023076
:100D40000A128A11F7240A128A110A128A116624D9
:100D50000A128A11A52E0A128A111228831203136D
:100D6000DA01D71FB42EB52EBC2ED609D709D60A64
:100D70000319D70ADA01DA0AD51FBF2EC02EC52EF5
:100D8000D409D509D40A0319D50A540855040319FE
:100D9000CA2ECB2EFA2ED901D90AD92E0130031032
:100DA000D40DD50DFF3E031DCF2E0130D8005808BD
:100DB000D907D51FDC2EDD2ECE2E55085702031D78
:100DC000E32E54085602031CE62EE72EED2E54089F
:100DD000D6025508031CD703D70201300310D50CE7
:100DE000D40CFF3E031DEE2E0130D902031DF92E57
:100DF000FA2EDD2E5A080319FE2EFF2E042FD609D7
:100E0000D709D60A0319D70A5708D5005608D400BF
:100E10000800FA308312031349064A04031D112FF8
:100E2000122F1A2F4C03031D162F172F1A2FCC0128
:100E3000C901CA014C0803191E2F1F2F522F013060
:100E4000C9070318CA0A0030CA073230D40000307C
:100E5000D5004A08D7004908D6000A128A158D26FF
:100E60000A128A118312031354085504031D392FE3
:100E70003A2F582F0A128A1552240A128A11013A5F
:100E8000031D432F442F4B2F00300A128A1556247E
:100E90000A128A11582F01300A128A1556240A1292
:100EA0008A11582F01300A128A1556240A128A1103
:100EB0000A128A154E240A128A110A128A159324DC
:100EC0000A128A1108000B1D662F672F6E2F0B1157
:100ED0007C080A128A1146200A128A11831203130F
:100EE0000C08CE0000300C180130013E792F0310A1
:100EF000CE0CFF3E031D772F4E1C7F2F802F912F8E
:100F00000130CE0000300C180130013E892F031053
:100F1000CE0DFF3E031D872F4E08FF3ACF004F082E
:100F20008C050C08CE0000308C180130013E9A2F41
:100F30000310CE0CFF3E031D982F4E1CA02FA12F97
:100F4000B22F0130CE0000308C180130013EAA2FA4
:100F50000310CE0DFF3E031DA82F4E08FF3ACF0011
:100F60004F088C055308FF0052088A00510884007E
:100F7000500E8300FE0E7E0E090083120313D6006E
:100F8000D72F3F30FF2F0630FF2F5B30FF2F4F3022
:100F9000FF2F6630FF2F6D30FF2F7D30FF2F073082
:100FA000FF2F7F30FF2F6F30FF2F0030FF2F5608AD
:100FB000D400D5015508003A0319DF2FD52F540866
:100FC000003A0319C12F013A0319C32F033A031939
:100FD000C52F013A0319C72F073A0319C92F013A40
:100FE0000319CB2F033A0319CD2F013A0319CF2F41
:100FF0000F3A0319D12F013A0319D32FD52F080027
:1018980001343C34831203136608080083120313CF
:1018A8006508080083120313D5005508D4005408AE
:1018B800E500080083120313D5005508D400540826
:1018C800FC00080064008001840A0406031900343F
:1018D8000406672C0A128A15AA240A128A15831686
:1018E8000313911408000A128A15AA240A128A15E9
:1018F80083160313111408000A128A15AA240A125F
:101908008A15831603131115080083120313D500D3
:101918005508D4005408CC00C901CA010800831234
:101928000313D6005608D400D5015408C70055083B
:10193800C80008008316031391160A128A15AA24F0
:101948000A128A1583160313111608008316031347
:101958001419AF2CB02CAA2C11081F39031DB52C53
:10196800B62CAA2C080083120313D4000A128A1575
:10197800AA240A128A1583120313540893008C1D93
:10198800C62CC72CC32C8C11080083120313D40057
:101998000A128A15AA240A128A1503148312031339
:1019A800540D93008C1DD92CDA2CD62C8C110800E0
:1019B800F200F301721CE12CE22CE62C7008F10015
:1019C8007108F3070310F00D0310F20C7208031DE1
:1019D800EE2CEF2CDE2C730808000A128A15AA24B4
:1019E8000A128A1583160313911583128C1DFD2C78
:1019F800FE2CF92C8C110A128A15AA240A128A15AF
:101A0800831203131308080083120313D700D601A7
:101A1800571C0F2D102D142D5408D5005508D60726
:101A28000310D40D0310D70C5708031D1C2D1D2DB2
:101A38000C2D5608080083120313D5000A128A15C4
:101A4800AA240A128A15831203135508D4005407CE
:101A580093008C1D302D312D2D2D8C1100308316C7
:101A68000313111B0130080083120313D90059080E
:101A78000A128A1576250A128A1583120313D800CA
:101A88005808DA005A08D800570A4C2D0310D80C09
:101A9800FF3E031D4A2D580801390800831203131D
:101AA800D40103300A128A1556260A128A15023002
:101AB80083120313D9005908D400D50100300A1243
:101AC8008A114F200A128A15033083120313D90092
:101AD8005908D400D50100300A128A114F200A1281
:101AE8008A15080083120313D600842D05089E2D3D
:101AF80006089E2D07089E2D08089E2D09089E2D74
:101B08005608D400D5015508003A03198C2D9D2D8F
:101B18005408003A03197A2D013A03197C2D033A27
:101B280003197E2D013A0319802D073A0319822DD6
:101B38009D2D0030080083120313DB015B080A1295
:101B48008A1183250A128A15013083120313DA00D9
:101B58005A08DB0703305B02031CB32DB42DA22DFA
:101B680001300A128A155E240A128A150830831277
:101B78000313D4000030D500D601D60A0A128A1100
:101B8800E9250A128A150800033083120313D900C5
:101B98005908D400D501D50A02300A128A114F20FB
:101BA8000A128A15043083120313D9005908D40085
:101BB800D501D50A02300A128A114F200A128A1555
:101BC8008316031391019401831203139416941539
:101BD800141194101410CF308316031393000800C7
:101BE80083120313DA00072E57088500202E5708A2
:101BF8008600202E57088700202E57088800202EA0
:101C080057088900202E5A08D800D9015908003AE7
:101C180003190F2E202E5808003A0319F82D013AFF
:101C28000319FB2D033A0319FE2D013A0319012E5E
:101C3800073A0319042E202E080083120313D70035
:101C48000A128A1577240A128A152F2E0A128A1563
:101C58006E240A128A1550300A128A151F250A1294
:101C68008A15003A031D392E3A2E2A2E00300A1200
:101C78008A15B7240A128A158312031357080A1201
:101C88008A15B7240A128A158312031356080A12F2
:101C98008A15B7240A128A150A128A1580240A128C
:101CA8008A15080083120313D700732E540883166D
:101CB800031385008C2E54088316031386008C2E7C
:101CC80054088316031387008C2E540883160313B5
:101CD80088008C2E54088316031389008C2E57080D
:101CE800D500D6015608003A03197B2E8C2E5508CC
:101CF800003A03195A2E013A03195F2E033A0319C1
:101D0800642E013A0319692E073A03196E2E8C2E98
:101D1800080083120313540855040319942E952EB2
:101D2800C42ED901D90AA32E01300310D40DD50D24
:101D3800FF3E031D992E0130D8005808D907D51F3A
:101D4800A62EA72E982E55085702031DAD2E54080F
:101D58005602031CB02EB12EB72E5408D6025508D1
:101D6800031CD703D70201300310D50CD40CFF3E57
:101D7800031DB82E0130D902031DC32EC42EA72E71
:101D88005708D5005608D400080083120313D90158
:101D9800DA01540855040319D22ED32E0A2FDB0179
:101DA800DB0AE12E01300310D40DD50DFF3E031DD3
:101DB800D72E0130D8005808DB07D51FE42EE52EB2
:101DC800D62E01300310D90DDA0DFF3E031DE62E85
:101DD80055085702031DF22E54085602031CF52E0F
:101DE800F62EFD2E5408D6025508031CD703D70239
:101DF800591401300310D50CD40CFF3E031DFE2EE0
:101E08000130DB02031D092F0A2FE52E5A08D500E1
:101E18005908D400080083120313D7000A128A1540
:101E280077240A128A151D2F0A128A156E240A129F
:101E38008A1550300A128A151F250A128A15003A87
:101E4800031D272F282F182F00300A128A15B724B0
:101E58000A128A158312031357080A128A15B7241F
:101E68000A128A150A128A156E240A128A15503027
:101E78000A128A15C9240A128A150A128A15F12427
:101E88000A128A1583120313D6005608D8000A12BC
:101E98008A159E240A128A150A128A1580240A12A3
:101EA8008A1583120313580808000230831203139B
:101EB800DB005B08D400D501D50A01300A128A116B
:101EC8004F200A128A1583120313D401D40AD501AC
:101ED800D50A01300A128A114F200A128A150030D9
:101EE8000A128A150F270A128A1583120313DB00B8
:101EF8005B08E60023306602031C832F842FA22F81
:101F08004C3066020318892F8A2FA22F0530D4007F
:101F18000030D5006608DB00DC015B08D6005C08F1
:101F2800D7000A128A11AE260A128A1583120313E1
:101F3800540855040319A12FA22FA62F3C30DB000B
:101F48005B08E60008000A128A1559270A128A1542
:101F580001300A128A1556240A128A150A128A159D
:101F68004E240A128A150A128A1593240A128A150F
:101F780083120313D70101300A128A15F4250A12B5
:101F88008A150A128A1552250A128A1503308312F5
:101F98000313DD005D08D400D50101300A128A114F
:101FA8004F200A128A15043083120313DD005D08DE
:101FB800D400D50101300A128A114F200A128A155D
:101FC800053083120313DD005D08D400D50101300C
:101FD8000A128A114F200A128A1505308312031338
:101FE800DD005D08D400D501D50A01300A128A1136
:081FF80044210A128A150800B9
:02400E00723FFF
:00000001FF
